S01F000043574368616F746963576974686F757450726F746563742E73726563DB
S1130000C4C00000E3C00000E1C00000DFC0000085
S1130010DDC00000DBC00000D9C00000D7C0000074
S1130020D5C00000D3C00000D1C00000CFC0000084
S1130030CDC00000CBC0000084C50000AFC50000E7
S1130040DAC5000005C6000030C600005BC600002B
S113005086C60000B1C60000DCC6000007C7000069
S1130060B5C00000B3C00000B1C00000AFC00000C4
S1130070ADC00000ABC00000A9C00000A7C00000D4
S1130080A5C00000A3C00000A1C000009FC00000E4
S11300909DC000009BC0000099C0000097C00000F4
S11300A095C0000093C0000091C000008FC0000004
S11300B08DC000008BC0000089C000000C94710842
S11300C00C949E080C94CB080C94F8080C94250905
S11300D00C9452097BC0000079C0000077C0000076
S11300E075C0000073C0000071C000006FC0000044
S11300F06DC000006BC0000069C0000067C0000054
S113010065C0000063C0000061C000005FC0000063
S11301105DC000005BC0000059C0000057C0000073
S113012055C0000053C0000051C000004FC0000083
S11301304DC00000C8C60000F3C600001EC7000082
S113014049C7000074C700009FC700003FC00000FB
S11301503DC000003BC0000039C0000037C00000B3
S113016035C0000033C0000031C000007E048204AA
S113017086048A048E04920496049A049E04A204BB
S1130180A604AA04AE04B204B60411241FBECFEF21
S1130190CDBFDFE3DEBF00E00CBF11E2A0E0B0E2C0
S11301A0E0E6F9E100E00BBF02C007900D92A83130
S11301B0B107D9F722E2A8E1B1E201C01D92A2354C
S11301C0B207E1F70E94050A0C94AE0C19CF009710
S11301D009F45EC0811524E0920711F464E005C0BF
S11301E0803821E0920719F462E080E050C0803842
S11301F023E0920711F461E005C0811522E0920723
S113020019F462E081E043C0811528E0920711F4FB
S113021061E036C0811529E0920711F461E029C03C
S113022081152AE0920711F461E030C0803428E09F
S1130230920711F462E024C0803928E0920711F497
S113024064E01EC0803C28E0920711F468E018C006
S1130250803C29E0920711F468E00BC0803A28E062
S1130260920711F460E10CC0803A29E0920719F476
S113027060E184E00CC0803824E0920719F460E463
S113028083E005C0803A944019F460E485E03BC4FF
S11302900895FC01218125FFFCCF608380E090E07C
S11302A00895FC01218127FFFCCF808108958F925E
S11302B09F92AF92BF92CF92DF92EF92FF920F93F1
S11302C01F93CF93DF93EC016A017B01480159012D
S11302D08C81B901A80182FF11C033E0769567953E
S11302E0579547953A95D1F7D501C401E6E1B695FE
S11302F0A79597958795EA95D1F710C094E07695E0
S11303006795579547959A95D1F7D901C80127E183
S1130310B695A795979587952A95D1F74C155D05C0
S11303206E057F0508F498C0C816D906EA06FB06D0
S113033008F492C08C8182FD04C0CC0CDD1CEE1C40
S1130340FF1CC501B401A70196010E94840C19EF9A
S11303508FEF90E0A0E0B0E0281739074A075B0769
S113036058F0880F991FAA1FBB1F1D3F0CF4816012
S11303701F5F173089F749C017FF47C0D701C6016F
S1130380F3E0880F991FAA1FBB1FFA95D1F7881AAB
S1130390990AAA0ABB0A812F012E000C990B1E3F51
S11303A0DCF42DEF3FEFA901481B590B04C0880C66
S11303B0991CAA1CBB1C4A95D2F7D701C601B69555
S11303C0A79597958795BC01CD01680D791D8A1D68
S11303D09B1DA701960116C00396A701960104C0B0
S11303E0220F331F441F551F8A95D2F7DA01C90122
S11303F0B695A79597958795BC01CD01680D791D94
S11304008A1D9B1D0E94840C1DC083E0810FA701DF
S1130410960104C0220F331F441F551F8A95D2F73B
S1130420DA01C901B695A79597958795BC01CD01C9
S1130430680D791D8A1D9B1D0E94840C2150310971
S113044041095109932F9F70812F8295807F892BB9
S11304508F832E8381E001C080E0DF91CF911F91D3
S11304600F91FF90EF90DF90CF90BF90AF909F904F
S11304708F9008950F931F93CF93DF93EC018B011B
S1130480A6DE8D818F738D83F80195818481982BED
S11304908681811188E0892B8D83F8014081518107
S11304A06281738100E115E720E730E0CE01FFDED1
S11304B09C8198609C839C8190619C83DF91CF9107
S11304C01F910F910895CF93DF93C42FD52FDC0193
S11304D09D01281B390B2617370728F52C912A3341
S11304E03CF02062022E000C330B2755310905C065
S11304F0022E000C330B205331091196EC91119705
S1130500EA333CF0E0620E2E000CFF0BE755F109D4
S113051004C00E2E000CFF0BF0972295207FE22BD7
S1130520E9931296D5CFCA01DF91CF9108951F9315
S1130530CF93DF93DA019C01260F371F82179307AD
S1130540B9F0EC01FC011191CF01E12FE295EF70BC
S1130550F0E0E050F04EE081EC93E881EF70F0E0E1
S1130560E050F04EE0811196EC9311971296E6CF8D
S1130570660F771FFA01E60FF71F1082DF91CF9104
S11305801F9108957F928F929F92AF92BF92CF92C4
S1130590DF92EF92FF920F931F93CF93DF936B0140
S11305A07C01742E052FC2E4D2E2699170E080E0F0
S11305B090E00E946B0B20E030E04AE754E4F7D768
S11305C02CE53FE842E05FE38ED74B015C0114E188
S11305D0A7019601C501B4010E941D0C18161CF454
S11305E0A501940112C0A701960160E070E080E8C3
S11305F09FE378D76B017C01A501940160E070E072
S113060080E89FE36FD79B01AC01C701B601CFD748
S11306106B017C011150E1F682E2C235D80709F082
S1130620C4CFC4E6A7019601C501B4010E941D0C04
S113063018161CF4A501940112C0A701960160E0EC
S113064070E080E89FE34ED76B017C01A501940123
S113065060E070E080E89FE345D79B01AC01C701EF
S1130660B601A5D76B017C01C150E1F6C72DD02F8F
S11306708E01005D1F4FA7019601C501B4010E94C0
S11306801D0C18161CF4A501940112C0A7019601B3
S113069060E070E080E89FE325D76B017C01A50151
S11306A0940160E070E080E89FE31CD79B01AC01FB
S11306B0C701B6017CD76B017C0120E030E040E843
S11306C053E40E94210CDBD769930C171D0799F69C
S11306D0A7019601C501B4010E941D0C18161CF453
S11306E0A501940112C0A701960160E070E080E8C2
S11306F09FE3F8D66B017C01A501940160E070E0F2
S113070080E89FE3EFD69B01AC01C701B6014FD748
S1130710609318217093192180931A2190931B21BF
S1130720DF91CF911F910F91FF90EF90DF90CF90C9
S1130730BF90AF909F908F907F90089548E451E2CE
S113074067E674E489E19FE31DCFFC019C01205F0F
S11307503F4FDB018D91BD01908189278193E21781
S1130760F307B9F70895FC0140962081DB01A20F3D
S1130770B11D2C9121938E179F07B9F70895282F47
S113078030E0220F331F87FD02C080E001C08BE1FF
S113079082270895CF92DF92EF92FF920F931F93D7
S11307A0CF93DF93CDB7DEB72897CDBFDEBFE82E5A
S11307B0F62EFE01319688E0DF011D928A95E9F755
S11307C0E9828F016E01B8E0CB0ED11CF801819152
S11307D08F01D5DFD8018C93C016D106B9F78F2DC0
S11307E081708E9D802D1124FE01329641E050E0EF
S11307F06F2D70E091919B01042E02C035952795D1
S11308000A94E2F72170299F202D112482274F5F3B
S11308105F4F4830510571F72896CDBFDEBFDF9199
S1130820CF911F910F91FF90EF90DF90CF9008959B
S11308300F931F93CF93DF93EC01AC01415F5F4FA4
S1130840FC01DF01319611963C9111972C912327DD
S11308502083E417F507A9F78C010F5011098F8540
S1130860882319F06E8596DF8E8721970C171D0754
S1130870B1F7DF91CF911F910F9108952F923F927D
S11308804F925F926F927F928F929F92AF92BF929C
S1130890CF92DF92EF92FF920F931F93CF93DF9348
S11308A0CDB7DEB76197CDBFDEBFDC016E0181E15C
S11308B0C80ED11C662309F481C0F889F98B6980BC
S11308C07A808B809C80AD80BE80EF80F88409851F
S11308D01A857B855C854D853E852F8590E0292E84
S11308E0312CF1013197EF30F10530F48827EA54C7
S11308F0FF4F8F4F0C94A60C6C903CC01E967C90BE
S11309001E9738C018968C90189734C016969C90F1
S1130910169730C01796AC9017972CC01196BC90C0
S1130920119728C01F96EC901F9724C01996FC902D
S1130930199720C01A960C911A971CC014961C91F2
S1130940149718C012967C91129714C01C965C914F
S11309501C9710C01D964C911D970CC01B963C9182
S11309601B9708C015962C91159704C01396EC910B
S11309701397E98B9F5F903109F0B1CF69827A8236
S11309808B829C82AD82BE82EF82F8861A877B8737
S11309905C874D873E872F87F989F88B0987AE01DD
S11309A04F5F5F4FCD01FA012191AF01FC0121930B
S11309B0CF014C155D05B9F761507CCF6196CDBF71
S11309C0DEBFDF91CF911F910F91FF90EF90DF90E9
S11309D0CF90BF90AF909F908F907F906F905F90DB
S11309E04F903F902F900895EF92FF920F931F9393
S11309F0CF93DF937C0108E711E2F801DB018D91CD
S1130A00BD018193B1E2E838FB07C1F781E080932F
S1130A1005060000000000000000000000000000C7
S1130A2000000000000000000000000000000000C2
S1130A3000000000000000000000000000000000B2
S1130A4000000000C8E4D1E2BE0188E791E27DDE47
S1130A5060E170E288E791E286DE88E791E2E8DE11
S1130A6021E041E061E088E791E208DF609681E2FD
S1130A70C837D80749F781E080930606F701D80103
S1130A808D918D018193B1E208381B07C1F7DF9185
S1130A90CF911F910F91FF90EF900895CF93DF9323
S1130AA01F92CDB7DEB78FB78983F89489810F90F1
S1130AB0DF91CF9108958FEF809370008093710040
S1130AC08093720080937300809374008093750008
S1130AD08093760010925200E1DF9091500098606C
S1130AE0909350008FBF8091510083FFFCCF63E04F
S1130AF080E490E03ED4D2DF909150009E7F9093AA
S1130B0050008FBF0895CF93DF93C82FD62FC6DF31
S1130B10EC2FF0E0E059FF4FD0959081D923D0839A
S1130B208FBFDF91CF910895CF93DF931F92CDB7FD
S1130B30DEB78FB78983F89489810F90DF91CF91C5
S1130B4008951F920F920FB60F9211240BB60F92B5
S1130B502F933F934F935F936F937F938F939F93C1
S1130B60AF93BF93EF93FF93E0914621F091472118
S1130B70309709F01995FF91EF91BF91AF919F9133
S1130B808F917F916F915F914F913F912F910F9032
S1130B900BBE0F900FBE0F901F9018951F920F92CF
S1130BA00FB60F9211240BB60F922F933F934F93CE
S1130BB05F936F937F938F939F93AF93BF93EF93C1
S1130BC0FF93E0914421F0914521309709F0199564
S1130BD0FF91EF91BF91AF919F918F917F916F9111
S1130BE05F914F913F912F910F900BBE0F900FBECD
S1130BF00F901F9018951F920F920FB60F92112409
S1130C000BB60F922F933F934F935F936F937F9302
S1130C108F939F93AF93BF93EF93FF93E091422100
S1130C20F0914321309709F01995FF91EF91BF910D
S1130C30AF919F918F917F916F915F914F913F9170
S1130C402F910F900BBE0F900FBE0F901F90189511
S1130C501F920F920FB60F9211240BB60F922F937F
S1130C603F934F935F936F937F938F939F93AF9330
S1130C70BF93EF93FF93E0914021F091412130978E
S1130C8009F01995FF91EF91BF91AF919F918F91C9
S1130C907F916F915F914F913F912F910F900BBE78
S1130CA00F900FBE0F901F9018951F920F920FB6C2
S1130CB00F9211240BB60F922F933F934F935F9390
S1130CC06F937F938F939F93AF93BF93EF93FF9310
S1130CD0E0913E21F0913F21309709F01995FF9161
S1130CE0EF91BF91AF919F918F917F916F915F91A0
S1130CF04F913F912F910F900BBE0F900FBE0F900D
S1130D001F9018951F920F920FB60F9211240BB6D5
S1130D100F922F933F934F935F936F937F938F9390
S1130D209F93AF93BF93EF93FF93E0913C21F09196
S1130D303D21309709F01995FF91EF91BF91AF9143
S1130D409F918F917F916F915F914F913F912F91DF
S1130D500F900BBE0F900FBE0F901F9018951F920F
S1130D600F920FB60F9211240BB60F922F933F934D
S1130D704F935F936F937F938F939F93AF93BF939F
S1130D80EF93FF93E0913A21F0913B21309709F0E2
S1130D901995FF91EF91BF91AF919F918F917F91A1
S1130DA06F915F914F913F912F910F900BBE0F90D8
S1130DB00FBE0F901F9018951F920F920FB60F92AF
S1130DC011240BB60F922F933F934F935F936F931E
S1130DD07F938F939F93AF93BF93EF93FF93E09190
S1130DE03821F0913921309709F01995FF91EF914D
S1130DF0BF91AF919F918F917F916F915F914F912F
S1130E003F912F910F900BBE0F900FBE0F901F902C
S1130E1018951F920F920FB60F9211240BB60F92D2
S1130E202F933F934F935F936F937F938F939F93EE
S1130E30AF93BF93EF93FF93E0913621F091372165
S1130E40309709F01995FF91EF91BF91AF919F9160
S1130E508F917F916F915F914F913F912F910F905F
S1130E600BBE0F900FBE0F901F9018951F920F92FC
S1130E700FB60F9211240BB60F922F933F934F93FB
S1130E805F936F937F938F939F93AF93BF93EF93EE
S1130E90FF93E0913421F0913521309709F01995B1
S1130EA0FF91EF91BF91AF919F918F917F916F913E
S1130EB05F914F913F912F910F900BBE0F900FBEFA
S1130EC00F901F9018951F920F920FB60F92112436
S1130ED00BB60F922F933F934F935F936F937F9330
S1130EE08F939F93AF93BF93EF93FF93E09132213E
S1130EF0F0913321309709F01995FF91EF91BF914B
S1130F00AF919F918F917F916F915F914F913F919D
S1130F102F910F900BBE0F900FBE0F901F9018953E
S1130F201F920F920FB60F9211240BB60F922F93AC
S1130F303F934F935F936F937F938F939F93AF935D
S1130F40BF93EF93FF93E0913021F09131213097DB
S1130F5009F01995FF91EF91BF91AF919F918F91F6
S1130F607F916F915F914F913F912F910F900BBEA5
S1130F700F900FBE0F901F9018951F920F920FB6EF
S1130F800F9211240BB60F922F933F934F935F93BD
S1130F906F937F938F939F93AF93BF93EF93FF933D
S1130FA0E0912E21F0912F21309709F01995FF91AE
S1130FB0EF91BF91AF919F918F917F916F915F91CD
S1130FC04F913F912F910F900BBE0F900FBE0F903A
S1130FD01F9018951F920F920FB60F9211240BB603
S1130FE00F922F933F934F935F936F937F938F93BE
S1130FF09F93AF93BF93EF93FF93E0912C21F091D4
S11310002D21309709F01995FF91EF91BF91AF9180
S11310109F918F917F916F915F914F913F912F910C
S11310200F900BBE0F900FBE0F901F9018951F923C
S11310300F920FB60F9211240BB60F922F933F937A
S11310404F935F936F937F938F939F93AF93BF93CC
S1131050EF93FF93E0912A21F0912B21309709F02F
S11310601995FF91EF91BF91AF919F918F917F91CE
S11310706F915F914F913F912F910F900BBE0F9005
S11310800FBE0F901F9018951F920F920FB60F92DC
S113109011240BB60F922F933F934F935F936F934B
S11310A07F938F939F93AF93BF93EF93FF93E091BD
S11310B02821F0912921309709F01995FF91EF919A
S11310C0BF91AF919F918F917F916F915F914F915C
S11310D03F912F910F900BBE0F900FBE0F901F905A
S11310E018951F920F920FB60F9211240BB60F9200
S11310F02F933F934F935F936F937F938F939F931C
S1131100AF93BF93EF93FF93E0912621F0912721B2
S1131110309709F01995FF91EF91BF91AF919F918D
S11311208F917F916F915F914F913F912F910F908C
S11311300BBE0F900FBE0F901F9018951F920F9229
S11311400FB60F9211240BB60F922F933F934F9328
S11311505F936F937F938F939F93AF93BF93EF931B
S1131160FF93E0912421F0912521309709F01995FE
S1131170FF91EF91BF91AF919F918F917F916F916B
S11311805F914F913F912F910F900BBE0F900FBE27
S11311900F901F9018951F920F920FB60F92112463
S11311A00BB60F922F933F934F935F936F937F935D
S11311B08F939F93AF93BF93EF93FF93E09122217B
S11311C0F0912321309709F01995FF91EF91BF9188
S11311D0AF919F918F917F916F915F914F913F91CB
S11311E02F910F900BBE0F900FBE0F901F9018956C
S11311F01F920F920FB60F9211240BB60F922F93DA
S11312003F934F935F936F937F938F939F93AF938A
S1131210BF93EF93FF93E0912021F0912121309728
S113122009F01995FF91EF91BF91AF919F918F9123
S11312307F916F915F914F913F912F910F900BBED2
S11312400F900FBE0F901F9018951F920F920FB61C
S11312500F9211240BB60F922F933F934F935F93EA
S11312606F937F938F939F93AF93BF93EF93FF936A
S1131270E0911E21F0911F21309709F01995FF91FB
S1131280EF91BF91AF919F918F917F916F915F91FA
S11312904F913F912F910F900BBE0F900FBE0F9067
S11312A01F9018951F920F920FB60F9211240BB630
S11312B00F922F933F934F935F936F937F938F93EB
S11312C09F93AF93BF93EF93FF93E0911C21F09111
S11312D01D21309709F01995FF91EF91BF91AF91BE
S11312E09F918F917F916F915F914F913F912F913A
S11312F00F900BBE0F900FBE0F901F9018951F9369
S1131300CF93DF93EC0110DC182FC11588E0D807C8
S113131011F461E005C0C03488E0D80731F462E01C
S113132083E0F1DB64E083E012C0C11589E0D807F3
S113133031F461E084E0E7DB64E084E008C0C115D7
S1131340DA4091F461E085E0DEDB64E085E0DBDB3C
S113135080919D218F3F09F4FFCFE6DB90919D2181
S11313609F5F90939D218FBF1FBFDF91CF911F91EE
S113137008951BBEFC0128ED24BF60830895CF931C
S1131380DF93CDB7DEB72797CDBFDEBF94DBE0E4B4
S1131390F6E088E0818384E08283E0E0F6E081E0A7
S11313A0818380E28183868380E481838583E0E195
S11313B0F1E284818D8385818E8386818F83808110
S11313C09181A281B38189839A83AB83BC8360E1D9
S11313D083E099DBBE016F5F7F4F80EA98E04AD8D3
S11313E080E098E08CDFE0E0F8E08181887F818311
S11313F080858E6F80878081807F8360808327963D
S1131400CDBFDEBFDF91CF910895B9DFD0E0C0E05A
S113141080EA98E00E9451018837C1F38B3611F4B9
S1131420D1E0F5CF803711F4D2E0F1CFD13091F48F
S11314306C2F70E0FB018A3019F08D3009F04DC03B
S1131440EE55FE4D108242E452E282EA91E23BD82C
S1131450D0E0DECFD230E1F68A3011F08D30C1F524
S11314606C2F70E0FB01EE55FE4D108242EE51E20E
S113147082EA91E228D810922008109221085ED9BD
S113148062EE71E282E392E2AFDA809120089091F9
S1131490210842EA51E260E170E082E392E247D837
S11314A062E780EA98E00E94490102EA11E2F80149
S11314B061918F0180EA98E00E944901F1E2023CC7
S11314C01F07A9F76AE080EA98E00E944901C0CFAB
S11314D0C03408F0BDCFEC2FF0E0EE55FE4D808314
S11314E0CF5F96CF5058BB27AA270ED06CC15DD1D1
S11314F030F062D120F031F49F3F11F41EF452C158
S11315000EF4E095E7FB48C1E92F6ED180F3BA17DA
S1131510620773078407950718F071F49EF586C176
S11315200EF4E0950B2EBA2FA02D0B01B9019001FA
S11315300C01CA01A0011124FF27591B99F0593F3E
S113154050F4503E68F11A16F040A22F232F342F86
S11315504427585FF3CF469537952795A795F040D4
S11315605395C9F77EF41F16BA0B620B730B840BE9
S1131570BAF09150A1F0FF0FBB1F661F771F881FA1
S1131580C2F70EC0BA0F621F731F841F48F48795F9
S113159077956795B795F7959E3F08F0B3CF9395E8
S11315A0880F08F09927EE0F9795879508950CD02A
S11315B00AC102D140F0F9D030F021F45F3F19F0B4
S11315C0EBC0511134C1EEC00FD198F39923C9F384
S11315D05523B1F3951B550BBB27AA276217730735
S11315E0840738F09F5F5F4F220F331F441FAA1FE9
S11315F0A9F333D00E2E3AF0E0E830D091505040A9
S1131600E695001CCAF729D0FE2F27D0660F771F56
S1131610881FBB1F261737074807AB07B0E809F038
S1131620BB0B802DBF01FF2793585F4F2AF09E3FCD
S1131630510568F0B1C0FBC05F3FECF3983EDCF3AA
S1131640869577956795B795F7959F5FC9F7880F46
S1131650911D9695879597F90895E1E0660F771F98
S1131660881FBB1F621773078407BA0720F0621B29
S1131670730B840BBA0BEE1F88F7E0950895BCD06A
S113168088F09F5790F0B92F9927B751A0F0D1F067
S1131690660F771F881F991F1AF0BA95C9F712C0F1
S11316A0B13081F0C3D0B1E00895C0C0672F782F66
S11316B08827B85F39F0B93FCCF38695779567955D
S11316C0B395D9F73EF490958095709561957F4FC9
S11316D08F4F9F4F0895E89409C097FB3EF490956F
S11316E08095709561957F4F8F4F9F4F9923A9F0F7
S11316F0F92F96E9BB279395F69587957795679586
S1131700B795F111F8CFFAF4BB0F11F460FF1BC0C9
S11317106F5F7F4F8F4F9F4F16C0882311F096E95C
S113172011C0772321F09EE8872F762F05C066230A
S113173071F096E8862F70E060E02AF09A95660FC3
S1131740771F881FDAF7880F9695879597F908957C
S1131750990F0008550FAA0BE0E8FEEF16161706BE
S1131760E807F907C0F012161306E407F50798F026
S1131770621B730B840B950B39F40A2661F0232B3F
S1131780242B252B21F408950A2609F4A140A695BB
S11317908FEF811D811D089597F99F6780E870E0A0
S11317A060E008959FEF80EC089500240A941616D3
S11317B0170618060906089500240A94121613063B
S11317C0140605060895092E0394000C11F48823C9
S11317D052F0BB0F40F4BF2B11F460FF04C06F5FE5
S11317E07F4F8F4F9F4F089557FD9058440F551FBB
S11317F059F05F3F71F04795880F97FB991F61F08F
S11318009F3F79F087950895121613061406551F05
S1131810F2CF4695F1DF08C0161617061806991F71
S1131820F1CF86957105610508940895E894BB2766
S113183066277727CB0197F908958ADF08F48FEF9D
S113184008950BD0C0CFB1DF28F0B6DF18F0952390
S113185009F0A2CFA7CF1124EACFC6DFA0F3959F4A
S1131860D1F3950F50E0551F629FF001729FBB2783
S1131870F00DB11D639FAA27F00DB11DAA1F649F2F
S11318806627B00DA11D661F829F2227B00DA11DE2
S1131890621F739FB00DA11D621F839FA00D611D68
S11318A0221F749F3327A00D611D231F849F600D89
S11318B0211D822F762F6A2F11249F5750408AF0C2
S11318C0E1F088234AF0EE0FFF1FBB1F661F771F4E
S11318D0881F91505040A9F79E3F510570F05CCF8E
S11318E0A6CF5F3FECF3983EDCF38695779567953A
S11318F0B795F795E7959F5FC1F7FE2B880F911D6C
S11319009695879597F90895A1E21A2EAA1BBB1BF9
S1131910FD010DC0AA1FBB1FEE1FFF1FA217B307B7
S1131920E407F50720F0A21BB30BE40BF50B661FCD
S1131930771F881F991F1A9469F760957095809591
S113194090959B01AC01BD01CF010895EE0FFF1FDF
S1131950881F8BBF0790F691E02D1994F894FFCF60
S113196030313233343536373839414243444546D1
S1131970637C777BF26B6FC53001672BFED7AB7648
S1131980CA82C97DFA5947F0ADD4A2AF9CA472C0F3
S1131990B7FD9326363FF7CC34A5E5F171D8311560
S11319A004C723C31896059A071280E2EB27B27581
S11319B009832C1A1B6E5AA0523BD6B329E32F84F9
S11319C053D100ED20FCB15B6ACBBE394A4C58CFF1
S11319D0D0EFAAFB434D338545F9027F503C9FA8C5
S11319E051A3408F929D38F5BCB6DA2110FFF3D293
S11319F0CD0C13EC5F974417C4A77E3D645D197347
S1131A0060814FDC222A908846EEB814DE5E0BDB40
S1131A10E0323A0A4906245CC2D3AC629195E47977
S1131A20E7C8376D8DD54EA96C56F4EA657AAE08D1
S1131A30BA78252E1CA6B4C6E8DD741F4BBD8B8A6C
S1131A40703EB5664803F60E613557B986C11D9ED2
S1131A50E1F8981169D98E949B1E87E9CE5528DF49
S1131A608CA1890DBFE6426841992D0FB054BB1675
S10B1A700096000003000000D1
S9030000FC
