:10000000C5C00000E4C00000E2C00000E0C0000085
:10001000DEC00000DCC00000DAC00000D8C0000074
:10002000D6C00000D4C00000D2C00000D0C0000084
:10003000CEC00000CCC00000C3C50000EEC500006B
:1000400019C6000044C600006FC600009AC6000032
:10005000C5C60000F0C600001BC7000046C7000070
:10006000B6C00000B4C00000B2C00000B0C00000C4
:10007000AEC00000ACC00000AAC00000A8C00000D4
:10008000A6C00000A4C00000A2C00000A0C00000E4
:100090009EC000009CC000009AC0000098C00000F4
:1000A00096C0000094C0000092C0000090C0000004
:1000B0008EC000008CC000008AC000000C94B00804
:1000C0000C94DD080C940A090C9437090C9464090B
:1000D0000C9491097CC000007AC0000078C0000038
:1000E00076C0000074C0000072C0000070C0000044
:1000F0006EC000006CC000006AC0000068C0000054
:1001000066C0000064C0000062C0000060C0000063
:100110005EC000005CC000005AC0000058C0000073
:1001200056C0000054C0000052C0000050C0000083
:100130004EC0000007C7000032C700005DC70000C6
:1001400088C70000B3C70000DEC7000040C0000041
:100150003EC000003CC000003AC0000038C00000B3
:1001600036C0000034C0000032C00000C104C40426
:10017000C704CA04CD04D004D304D604D904DC04D3
:10018000DF04E204E504E804EB04EE0411241FBEDE
:10019000CFEFCDBFDFE3DEBF00E00CBF11E2A0E098
:1001A000B0E2ECE2FCE100E00BBF02C007900D9270
:1001B000A831B107D9F722E2A8E1B1E201C01D924E
:1001C000A234B207E1F70E94330B0C94140E18CF3F
:1001D000FC01918195FFFDCF608380E090E0089560
:1001E000FC0191819923ECF7808108954F925F92F1
:1001F0006F927F928F929F92AF92BF92EF92FF92F7
:100200000F931F93CF937C014A015B0128013901B1
:10021000FC01848182FF16C0D901C801689412F8DC
:10022000B695A795979587951694D1F7B901A8012A
:10023000032E36E176956795579547953A95D1F710
:10024000302D15C0D901C801689413F8B695A7954B
:10025000979587951694D1F7B901A801032E37E138
:1002600076956795579547953A95D1F7302D88152E
:100270009905AA05BB0508F4A6C084169506A6062E
:10028000B70608F4A2C0F701848182FD04C0880C7F
:10029000991CAA1CBB1CC301B201A50194010E94B8
:1002A000DB0D2F3F31054105510508F490C08FEF5C
:1002B00090E0A0E0B0E0C9EF05C0281739074A0771
:1002C0005B0758F0880F991FAA1FBB1FCD3F0CF486
:1002D0008160CF5FC73089F74FC0CC230CF04CC092
:1002E000D501C401880F991FAA1FBB1F880F991F32
:1002F000AA1FBB1F880F991FAA1FBB1F481A590AA4
:100300006A0A7B0ACE3FF4F48DEF9FEF8C1B9109B4
:10031000C7FD939504C0440C551C661C771C8A9538
:10032000D2F7D501C401B695A79597958795BC01DD
:10033000CD01640D751D861D971DA50194010E94B8
:10034000DB0D37C083E08C0FA501940104C0220FA0
:10035000331F441F551F8A95D2F7DA01C901B6959C
:10036000A79597958795BC01CD01640D751D861DD8
:10037000971D0E94DB0D1DC083E08C0FA501940129
:1003800004C0220F331F441F551F8A95D2F7DA018C
:10039000C901B695A79597958795BC01CD01640DC8
:1003A000751D861D971D0E94DB0D215031094109E5
:1003B0005109832F8F70C295C07FC82BF701C78367
:1003C000268381E018C080E016C080E014C0D5010B
:1003D000C401880F991FAA1FBB1F880F991FAA1F4E
:1003E000BB1F880F991FAA1FBB1F481A590A6A0A08
:1003F0007B0AC9EF89CFCF911F910F91FF90EF90AA
:10040000BF90AF909F908F907F906F905F904F9034
:1004100008950F931F93CF93DF93EC018B01892BEA
:1004200009F477C0C11584E0D80721F464E080E0C6
:10043000B1D36FC0C038E1E0DE0721F462E080E0B4
:10044000A9D367C0C038F3E0DF0721F461E081E0A1
:10045000A1D35FC0C11582E0D80721F462E081E03A
:1004600099D357C0C115E8E0DE0721F461E083E0CD
:1004700091D34FC0C115F9E0DF0721F461E084E0BA
:1004800089D347C0C1158AE0D80721F461E085E02F
:1004900081D33FC0C034E8E0DE0721F462E083E0AE
:1004A00079D337C0C039F8E0DF0721F464E083E096
:1004B00071D32FC0C03C88E0D80721F468E083E006
:1004C00069D327C0C03CE9E0DE0721F468E084E09E
:1004D00061D31FC0C03AF8E0DF0721F460E183E098
:1004E00059D317C0C03A89E0D80721F460E184E00D
:1004F00051D30FC0C038E4E0DE0721F460E483E0AC
:1005000049D307C0C03AF4E0DF0719F460E485E09E
:1005100041D38D818F738D83F80195818481892BDF
:100520009681911198E0892B8D83F801408151814A
:100530006281738100E115E720E730E0CE0156DEED
:100540009C8198609C839C8190619C83DF91CF917A
:100550001F910F910895EF92FF920F931F93CF93E6
:10056000DF93062F172F0115110589F1E82FF92FB9
:10057000E42EF52EA0E0B0E0BF0120812A333CF04C
:100580002062022E000C330B2755310905C0022EC4
:10059000000C330B20533109EB0169816A333CF0C5
:1005A0006062062E000C770B6755710905C0062E98
:1005B000000C770B605371092295207F622BE701B5
:1005C00069937E0112963296A017B107A8F2842F84
:1005D000952FDF91CF911F910F91FF90EF9008958C
:1005E000CF93DF9361157105E9F0EA01DC01860F15
:1005F000971F9D01ED91E295EF70F0E0E050F04E15
:10060000E081E883F9012081E22FEF70F0E0E05013
:10061000F04E208129832296A817B90751F7660F5B
:10062000771F02C060E070E0FA01E60FF71F10824A
:10063000DF91CF9108955F926F927F928F929F92F8
:10064000AF92BF92CF92DF92EF92FF920F931F93E0
:10065000CF93DF936B017C013A01C2E3D2E202E463
:1006600012E2699170E080E090E00E94C20C20E00C
:1006700030E04AE754E40E942E0C2CE53FE842E0CB
:100680005FE30E94CA0B4B015C010F2EF4E15F2E69
:10069000F02DA7019601C501B4010E94740D181632
:1006A0004CF4A5019401C701B6010E942E0C6B0108
:1006B0007C011AC0A701960160E070E080E89FE32A
:1006C0000E94C90B6B017C01A501940160E070E000
:1006D00080E89FE30E94C90B9B01AC01C701B601F2
:1006E0000E942E0C6B017C015A945110D2CFC0177E
:1006F000D10709F0B6CFE3018301005D1F4FA701C9
:100700009601C501B4010E94740D18164CF4A501A0
:100710009401C701B6010E942E0C6B017C011AC026
:10072000A701960160E070E080E89FE30E94C90B9A
:100730006B017C01A501940160E070E080E89FE31B
:100740000E94C90B9B01AC01C701B6010E942E0C8F
:100750006B017C0120E030E040E853E4C701B601C2
:100760000E94780D0E94960C69930C171D0739F6AC
:10077000A7019601C501B4010E94740D18163CF43E
:10078000A5019401C701B6010E942E0C16C0A70155
:10079000960160E070E080E89FE3FBD76B017C018D
:1007A000A501940160E070E080E89FE3F2D79B012F
:1007B000AC01C701B6010E942E0C60931821709302
:1007C000192180931A2190931B21DF91CF911F91C2
:1007D0000F91FF90EF90DF90CF90BF90AF909F90E0
:1007E0008F907F906F905F90089548E451E267E6A4
:1007F00074E489E19FE31FCF0895DB01FC01AC01A4
:10080000405F5F4F9D91208192279193E417F507F8
:10081000C9F70895FC019C01205F3F4F9081DB01E7
:10082000A90FB11D9C919193E217F307B9F70895B1
:10083000282F30E0220F331F882314F080E001C0FE
:100840008BE182270895CF92DF92EF92FF920F9370
:100850001F93CF93DF93CDB7DEB72897CDBFDEBF11
:10086000E82EF62EFE01319688E0DF011D928A9572
:10087000E9F7E9828F016E01B8E0CB0ED11CF801D7
:1008800081918F01D5DFD8018C930C151D05B9F727
:100890008F2D81708E9D802D1124FE01329641E0B6
:1008A00050E06F2D70E091919B01042E02C03595B0
:1008B00027950A94E2F72170299F202D1124822781
:1008C0004F5F5F4F4830510571F72896CDBFDEBFAF
:1008D000DF91CF911F910F91FF90EF90DF90CF901C
:1008E00008950F931F93CF93DF938C01FC01AC010C
:1008F000415F5F4FDF01319611962C9111979C91CA
:10090000922790834E175F07A9F7E8012E960150B2
:1009100011098981882319F0688195DF88832197DF
:10092000C017D107B1F7DF91CF911F910F910895B3
:100930003F924F925F926F927F928F929F92AF926F
:10094000BF92CF92DF92EF92FF920F931F93CF93BC
:10095000DF93CDB7DEB76097CDBFDEBF8C016111ED
:100960006DC080C02F5F8FEF820F90E080319105C6
:1009700008F047C0FC018827EA54FF4F8F4F0C94C2
:10098000FD0DF8013081EECFF8017685EBCFF8014F
:10099000F084E8CFF801E680E5CFF801D780E2CF18
:1009A000F801C180DFCFF801B784DCCFF801A18462
:1009B000D9CFF8019284D6CFF8018480D3CFF80143
:1009C0007280D0CFF8016484CDCFF8015584CACFAE
:1009D000F8014384C7CFF8013580C4CF39837A83C7
:1009E000FB82EC82DD82CE82A88699868A867B860F
:1009F0006C865D864E863F86BF82F8018381888B38
:100A000012C0203108F4AECF39837A83FB82EC82A6
:100A1000DD82CE82A88699868A867B866C865D86F4
:100A20004E863F86BF82FE013196D80181918D931B
:100A3000E417F507D9F7615021F414C0AE014F5EF9
:100A40005F4F3F844E845D846C847B848A84998468
:100A5000A884BF80CE80DD80EC80FB807A813981E4
:100A600021E081CF6096CDBFDEBFDF91CF911F9196
:100A70000F91FF90EF90DF90CF90BF90AF909F903D
:100A80008F907F906F905F904F903F900895AF92BE
:100A9000BF92CF92DF92EF92FF920F931F93CF936B
:100AA000DF93A82EB92EDB01C8E7D1E208E811E2F6
:100AB000FE018D918193E017F107D9F70F2EF8E42D
:100AC000EF2EF1E2FF2EF02D0F2EF8E7CF2EF1E200
:100AD000DF2EF02DB70188E791E28FDE60E170E252
:100AE00088E791E297DE88E791E2FBDE21E041E0D2
:100AF00061E088E791E21CDF80E1E80EF11CEC1474
:100B0000FD0441F7EA2DFB2D89918193C017D10790
:100B1000D9F7DF91CF911F910F91FF90EF90DF9068
:100B2000CF90BF90AF900895CF93DF931F921F9205
:100B3000CDB7DEB78FEF8093700080937100809304
:100B4000720080937300809374008093750080938B
:100B50007600E0E5F0E012828FB78A83F8949A81FC
:100B60008081886080839FBF818183FFFDCF63E0A8
:100B700080E490E053D48FB78983F8949981E0E5BD
:100B8000F0E080818E7F80839FBF0F900F90DF9178
:100B9000CF910895CF93DF931F92CDB7DEB79FB764
:100BA0009983F8949981E82FF0E0E059FF4F609520
:100BB0008081682360839FBF0F90DF91CF9108955C
:100BC0001F920F920FB60F9211240BB60F922F9314
:100BD0003F934F935F936F937F938F939F93AF93C5
:100BE000BF93EF93FF93E0914621F0914721309717
:100BF00009F01995FF91EF91BF91AF919F918F915E
:100C00007F916F915F914F913F912F910F900BBE0C
:100C10000F900FBE0F901F9018951F920F920FB656
:100C20000F9211240BB60F922F933F934F935F9324
:100C30006F937F938F939F93AF93BF93EF93FF93A4
:100C4000E0914421F0914521309709F01995FF91E9
:100C5000EF91BF91AF919F918F917F916F915F9134
:100C60004F913F912F910F900BBE0F900FBE0F90A1
:100C70001F9018951F920F920FB60F9211240BB66A
:100C80000F922F933F934F935F936F937F938F9325
:100C90009F93AF93BF93EF93FF93E0914221F09125
:100CA0004321309709F01995FF91EF91BF91AF91D2
:100CB0009F918F917F916F915F914F913F912F9174
:100CC0000F900BBE0F900FBE0F901F9018951F92A4
:100CD0000F920FB60F9211240BB60F922F933F93E2
:100CE0004F935F936F937F938F939F93AF93BF9334
:100CF000EF93FF93E0914021F0914121309709F06B
:100D00001995FF91EF91BF91AF919F918F917F9135
:100D10006F915F914F913F912F910F900BBE0F906C
:100D20000FBE0F901F9018951F920F920FB60F9243
:100D300011240BB60F922F933F934F935F936F93B2
:100D40007F938F939F93AF93BF93EF93FF93E09124
:100D50003E21F0913F21309709F01995FF91EF91D5
:100D6000BF91AF919F918F917F916F915F914F91C3
:100D70003F912F910F900BBE0F900FBE0F901F90C1
:100D800018951F920F920FB60F9211240BB60F9267
:100D90002F933F934F935F936F937F938F939F9383
:100DA000AF93BF93EF93FF93E0913C21F0913D21EE
:100DB000309709F01995FF91EF91BF91AF919F91F5
:100DC0008F917F916F915F914F913F912F910F90F4
:100DD0000BBE0F900FBE0F901F9018951F920F9291
:100DE0000FB60F9211240BB60F922F933F934F9390
:100DF0005F936F937F938F939F93AF93BF93EF9383
:100E0000FF93E0913A21F0913B21309709F0199539
:100E1000FF91EF91BF91AF919F918F917F916F91D2
:100E20005F914F913F912F910F900BBE0F900FBE8E
:100E30000F901F9018951F920F920FB60F921124CA
:100E40000BB60F922F933F934F935F936F937F93C4
:100E50008F939F93AF93BF93EF93FF93E0913821CC
:100E6000F0913921309709F01995FF91EF91BF91D9
:100E7000AF919F918F917F916F915F914F913F9132
:100E80002F910F900BBE0F900FBE0F901F901895D3
:100E90001F920F920FB60F9211240BB60F922F9341
:100EA0003F934F935F936F937F938F939F93AF93F2
:100EB000BF93EF93FF93E0913621F0913721309764
:100EC00009F01995FF91EF91BF91AF919F918F918B
:100ED0007F916F915F914F913F912F910F900BBE3A
:100EE0000F900FBE0F901F9018951F920F920FB684
:100EF0000F9211240BB60F922F933F934F935F9352
:100F00006F937F938F939F93AF93BF93EF93FF93D1
:100F1000E0913421F0913521309709F01995FF9136
:100F2000EF91BF91AF919F918F917F916F915F9161
:100F30004F913F912F910F900BBE0F900FBE0F90CE
:100F40001F9018951F920F920FB60F9211240BB697
:100F50000F922F933F934F935F936F937F938F9352
:100F60009F93AF93BF93EF93FF93E0913221F09162
:100F70003321309709F01995FF91EF91BF91AF910F
:100F80009F918F917F916F915F914F913F912F91A1
:100F90000F900BBE0F900FBE0F901F9018951F92D1
:100FA0000F920FB60F9211240BB60F922F933F930F
:100FB0004F935F936F937F938F939F93AF93BF9361
:100FC000EF93FF93E0913021F0913121309709F0B8
:100FD0001995FF91EF91BF91AF919F918F917F9163
:100FE0006F915F914F913F912F910F900BBE0F909A
:100FF0000FBE0F901F9018951F920F920FB60F9271
:1010000011240BB60F922F933F934F935F936F93DF
:101010007F938F939F93AF93BF93EF93FF93E09151
:101020002E21F0912F21309709F01995FF91EF9122
:10103000BF91AF919F918F917F916F915F914F91F0
:101040003F912F910F900BBE0F900FBE0F901F90EE
:1010500018951F920F920FB60F9211240BB60F9294
:101060002F933F934F935F936F937F938F939F93B0
:10107000AF93BF93EF93FF93E0912C21F0912D213B
:10108000309709F01995FF91EF91BF91AF919F9122
:101090008F917F916F915F914F913F912F910F9021
:1010A0000BBE0F900FBE0F901F9018951F920F92BE
:1010B0000FB60F9211240BB60F922F933F934F93BD
:1010C0005F936F937F938F939F93AF93BF93EF93B0
:1010D000FF93E0912A21F0912B21309709F0199587
:1010E000FF91EF91BF91AF919F918F917F916F9100
:1010F0005F914F913F912F910F900BBE0F900FBEBC
:101100000F901F9018951F920F920FB60F921124F7
:101110000BB60F922F933F934F935F936F937F93F1
:101120008F939F93AF93BF93EF93FF93E091282109
:10113000F0912921309709F01995FF91EF91BF9116
:10114000AF919F918F917F916F915F914F913F915F
:101150002F910F900BBE0F900FBE0F901F90189500
:101160001F920F920FB60F9211240BB60F922F936E
:101170003F934F935F936F937F938F939F93AF931F
:10118000BF93EF93FF93E0912621F09127213097B1
:1011900009F01995FF91EF91BF91AF919F918F91B8
:1011A0007F916F915F914F913F912F910F900BBE67
:1011B0000F900FBE0F901F9018951F920F920FB6B1
:1011C0000F9211240BB60F922F933F934F935F937F
:1011D0006F937F938F939F93AF93BF93EF93FF93FF
:1011E000E0912421F0912521309709F01995FF9184
:1011F000EF91BF91AF919F918F917F916F915F918F
:101200004F913F912F910F900BBE0F900FBE0F90FB
:101210001F9018951F920F920FB60F9211240BB6C4
:101220000F922F933F934F935F936F937F938F937F
:101230009F93AF93BF93EF93FF93E0912221F0919F
:101240002321309709F01995FF91EF91BF91AF914C
:101250009F918F917F916F915F914F913F912F91CE
:101260000F900BBE0F900FBE0F901F9018951F92FE
:101270000F920FB60F9211240BB60F922F933F933C
:101280004F935F936F937F938F939F93AF93BF938E
:10129000EF93FF93E0912021F0912121309709F005
:1012A0001995FF91EF91BF91AF919F918F917F9190
:1012B0006F915F914F913F912F910F900BBE0F90C7
:1012C0000FBE0F901F9018951F920F920FB60F929E
:1012D00011240BB60F922F933F934F935F936F930D
:1012E0007F938F939F93AF93BF93EF93FF93E0917F
:1012F0001E21F0911F21309709F01995FF91EF9170
:10130000BF91AF919F918F917F916F915F914F911D
:101310003F912F910F900BBE0F900FBE0F901F901B
:1013200018951F920F920FB60F9211240BB60F92C1
:101330002F933F934F935F936F937F938F939F93DD
:10134000AF93BF93EF93FF93E0911C21F0911D2188
:10135000309709F01995FF91EF91BF91AF919F914F
:101360008F917F916F915F914F913F912F910F904E
:101370000BBE0F900FBE0F901F9018951F93CF9329
:10138000DF931F921F92CDB7DEB72FB72A83F89451
:101390001A81282F392F211588E0380739F461E0A8
:1013A00083E0F8DB64E083E0F5DB22C0203488E0F2
:1013B000380739F462E083E0EDDB64E083E0EADBE8
:1013C00017C0211589E0380739F461E084E0E2DBD9
:1013D00064E084E0DFDB0CC021153A4039F461E0C1
:1013E00085E0D8DB64E085E0D5DB02C01FBF10C01C
:1013F00080919D218F3F09F4FFCF8FB78983F894A7
:101400009981ECE9F1E281818F5F81839FBF1FBFEA
:101410000F900F90DF91CF911F9108951BBEFC019B
:1014200028ED24BF60830895CF93DF93CDB7DEB757
:101430002797CDBFDEBF78DBE0E4F6E088E081836C
:1014400084E08283E0E0F6E081E0818380E28183D2
:10145000868380E481838583E0E1F1E284818D836A
:1014600085818E8386818F8380819181A281B381E2
:1014700089839A83AB83BC8360E183E08BDBBE010D
:101480006F5F7F4F80EA98E00E94090280E098E059
:1014900075DFE0E0F8E08181887F818380858E6F51
:1014A00080878081807F836080832796CDBFDEBF69
:1014B000DF91CF910895EF92FF920F931F93CF93F7
:1014C000DF93CDB7DEB72597CDBFDEBFFC019C0112
:1014D000329522952F7023273F702327A7E4B3E08E
:1014E00094D39695879596958795969587958983B4
:1014F0009F01369527953695279536952795A5EC26
:10150000B0E283D3AC01529542954F7045275F708E
:1015100045279A01ADECBCEC78D3969587959695C6
:101520008795969587959C01220F331F880F991FE9
:10153000880F991F880F991F820F931F481B590B03
:101540004A839F013695279536952795ABE7B4E1F9
:101550005CD3AC01569547959A01ADECBCEC55D3E4
:101560009695879596958795969587959C01220FD8
:10157000331F880F991F880F991F880F991F820F9B
:10158000931F481B590B4B839F013FD3AC015695CA
:10159000479556954795569547959A0136D3969512
:1015A000879596958795969587959C01220F331F71
:1015B000880F991F880F991F880F991F820F931FFB
:1015C0009A01281B390B2C83CA01880F991F440FDD
:1015D000551F440F551F440F551F480F591FE41B3B
:1015E000F50BED838E010F5F1F4F7E0136E0E30E9A
:1015F000F11CF80161918F01605D80EA98E00E9422
:10160000E8000E151F05A9F76AE080EA98E00E943D
:10161000E8002596CDBFDEBFDF91CF911F910F91DE
:10162000FF90EF9008951F93CF93DF93182FC8E09A
:10163000D0E8812F8D2331F061E380EA98E00E94A9
:10164000E80005C060E380EA98E00E94E800D695D3
:10165000C15079F76AE080EA98E00E94E800DF91E3
:10166000CF911F910895E0DE10E0712CE12C689479
:10167000FF24F3F80F2E812CF6E09F2EF02D662428
:101680006394C2ECD1E26894AA24A6F8B12C0AC0F3
:1016900010E0712C07C0162D712C04C012E0712CC3
:1016A00001C010E080EA98E00E94F000883781F3E2
:1016B0008B3689F3803791F31130C9F48A3011F0F9
:1016C0008D3071F4672D70E0FB01EE55FE4D1082F8
:1016D00042E352E282EA91E20E94AB0210E0E2CFE2
:1016E000E72DF0E0EE55FE4D80837394DBCF123092
:1016F000C9F68A3019F08D3009F040C0672D70E0CE
:10170000FB01EE55FE4D108242EE51E282EA91E27B
:101710000E94AB02F70110A211A267D8F401658202
:1017200062EE71E2CB01B3D9F701C0A0D1A0F40100
:10173000668242EA51E260E170E082EE91E20E944C
:10174000F00262E780EA98E00E94E80002EA11E213
:10175000F80161918F0180EA98E00E94E8000C177F
:101760001D07B1F76AE080EA98E00E94E800C60130
:10177000A2DEF501808157DF10E094CFFFE3F7157B
:1017800008F48FCFE72DF0E0EE55FE4D8083739483
:1017900089CF5058BB27AA270ED06CC15DD130F03D
:1017A00062D120F031F49F3F11F41EF452C10EF4C7
:1017B000E095E7FB48C1E92F6ED180F3BA176207C5
:1017C00073078407950718F071F49EF586C10EF42F
:1017D000E0950B2EBA2FA02D0B01B90190010C0141
:1017E000CA01A0011124FF27591B99F0593F50F459
:1017F000503E68F11A16F040A22F232F342F4427B1
:10180000585FF3CF469537952795A795F0405395A8
:10181000C9F77EF41F16BA0B620B730B840BBAF078
:101820009150A1F0FF0FBB1F661F771F881FC2F7E3
:101830000EC0BA0F621F731F841F48F487957795F7
:101840006795B795F7959E3F08F0B3CF9395880FAE
:1018500008F09927EE0F9795879508950CD00AC147
:1018600002D140F0F9D030F021F45F3F19F0EBC025
:10187000511134C1EEC00FD198F39923C9F3552308
:10188000B1F3951B550BBB27AA2762177307840773
:1018900038F09F5F5F4F220F331F441FAA1FA9F329
:1018A00033D00E2E3AF0E0E830D091505040E6951B
:1018B000001CCAF729D0FE2F27D0660F771F881F7C
:1018C000BB1F261737074807AB07B0E809F0BB0B6B
:1018D000802DBF01FF2793585F4F2AF09E3F51058F
:1018E00068F0B1C0FBC05F3FECF3983EDCF3869537
:1018F00077956795B795F7959F5FC9F7880F911D05
:101900009695879597F90895E1E0660F771F881FF0
:10191000BB1F621773078407BA0720F0621B730BA3
:10192000840BBA0BEE1F88F7E0950895BCD088F0C1
:101930009F5790F0B92F9927B751A0F0D1F0660FBB
:10194000771F881F991F1AF0BA95C9F712C0B130D6
:1019500081F0C3D0B1E00895C0C0672F782F8827E9
:10196000B85F39F0B93FCCF3869577956795B39515
:10197000D9F73EF490958095709561957F4F8F4F84
:101980009F4F0895E89409C097FB3EF49095809589
:10199000709561957F4F8F4F9F4F9923A9F0F92F35
:1019A00096E9BB279395F695879577956795B795B3
:1019B000F111F8CFFAF4BB0F11F460FF1BC06F5F99
:1019C0007F4F8F4F9F4F16C0882311F096E911C0AB
:1019D000772321F09EE8872F762F05C0662371F0CC
:1019E00096E8862F70E060E02AF09A95660F771FE0
:1019F000881FDAF7880F9695879597F90895990FBC
:101A00000008550FAA0BE0E8FEEF16161706E807C8
:101A1000F907C0F012161306E407F50798F0621BE9
:101A2000730B840B950B39F40A2661F0232B242BBE
:101A3000252B21F408950A2609F4A140A6958FEFDD
:101A4000811D811D089597F99F6780E870E060E02F
:101A500008959FEF80EC089500240A941616170647
:101A600018060906089500240A941216130614068F
:101A700005060895092E0394000C11F4882352F0F2
:101A8000BB0F40F4BF2B11F460FF04C06F5F7F4FAA
:101A90008F4F9F4F089557FD9058440F551F59F091
:101AA0005F3F71F04795880F97FB991F61F09F3F4B
:101AB00079F087950895121613061406551FF2CF74
:101AC0004695F1DF08C0161617061806991FF1CFC4
:101AD00086957105610508940895E894BB276627EB
:101AE0007727CB0197F908958ADF08F48FEF0895DF
:101AF0000BD0C0CFB1DF28F0B6DF18F0952309F086
:101B0000A2CFA7CF1124EACFC6DFA0F3959FD1F3D0
:101B1000950F50E0551F629FF001729FBB27F00D9B
:101B2000B11D639FAA27F00DB11DAA1F649F6627F0
:101B3000B00DA11D661F829F2227B00DA11D621F3F
:101B4000739FB00DA11D621F839FA00D611D221FF9
:101B5000749F3327A00D611D231F849F600D211DDD
:101B6000822F762F6A2F11249F5750408AF0E1F080
:101B700088234AF0EE0FFF1FBB1F661F771F881FC9
:101B800091505040A9F79E3F510570F05CCFA6CF11
:101B90005F3FECF3983EDCF3869577956795B795B4
:101BA000F795E7959F5FC1F7FE2B880F911D9695DE
:101BB000879597F90895A1E21A2EAA1BBB1BFD0178
:101BC0000DC0AA1FBB1FEE1FFF1FA217B307E4071C
:101BD000F50720F0A21BB30BE40BF50B661F771F74
:101BE000881F991F1A9469F7609570958095909554
:101BF0009B01AC01BD01CF010895EE0FFF1F881FAF
:101C00008BBF0790F691E02D1994A29FB001B39F6E
:101C1000C001A39F700D811D1124911DB29F700DF5
:0C1C2000811D1124911D0895F894FFCF40
:101C2C003031323334353637383941424344454606
:101C3C00637C777BF26B6FC53001672BFED7AB767D
:101C4C00CA82C97DFA5947F0ADD4A2AF9CA472C028
:101C5C00B7FD9326363FF7CC34A5E5F171D8311595
:101C6C0004C723C31896059A071280E2EB27B275B6
:101C7C0009832C1A1B6E5AA0523BD6B329E32F842E
:101C8C0053D100ED20FCB15B6ACBBE394A4C58CF26
:101C9C00D0EFAAFB434D338545F9027F503C9FA8FA
:101CAC0051A3408F929D38F5BCB6DA2110FFF3D2C8
:101CBC00CD0C13EC5F974417C4A77E3D645D19737C
:101CCC0060814FDC222A908846EEB814DE5E0BDB76
:101CDC00E0323A0A4906245CC2D3AC629195E479AD
:101CEC00E7C8376D8DD54EA96C56F4EA657AAE0807
:101CFC00BA78252E1CA6B4C6E8DD741F4BBD8B8AA2
:101D0C00703EB5664803F60E613557B986C11D9E07
:101D1C00E1F8981169D98E949B1E87E9CE5528DF7E
:101D2C008CA1890DBFE6426841992D0FB054BB16AA
:081D3C00009600000300000006
:00000001FF
